:100000000C943A000C9457000C9457000C94DE05A5
:100010000C9409060C94FB040C9457000C945700A4
:100020000C9457000C94A8060C9457000C9457009D
:100030000C949D060C9492060C9457000C94570057
:100040000C9457000C9457000C944B060C945700DA
:100050000C9457000C9457000C9457000C945700C4
:100060000C9457000C9457006364696E6F7073753D
:1000700078585B0011241FBECFEFD8E0DEBFCDBFA4
:1000800011E0A0E0B1E0EEEEFBE102C005900D92C0
:10009000A03BB107D9F721E0A0EBB1E001C01D9270
:1000A000A53CB207E1F70E94FE060C94F50D0C94F6
:1000B0000000399A8FE599E00197F1F700C0000040
:1000C00039988BE091E00197F1F700C00000319979
:1000D0000AC0319BFECF87EC90E00197F1F700C09A
:1000E000000081E0089580E00895399A8AE08A95B9
:1000F000F1F700C039988FEE90E00197F1F700C05A
:1001000000000895399A8FEE90E00197F1F700C052
:10011000000039989AE09A95F1F700C00895CF93BE
:10012000DF93D82FC8E0D0FF08C00E947500D69595
:10013000C150C9F7DF91CF9108950E948200F7CF97
:100140000E945900882331F08CEC0E948F0084E4D7
:100150000C948F000895399A8AE08A95F1F700C0CF
:100160003998E5E3EA95F1F7000086B1E7ECF0E0B5
:100170003197F1F700C00000827008951F93CF936C
:10018000DF93D8E011E0C0E00E94AB008111C12BE9
:10019000110FD150C9F78C2FDF91CF911F91089586
:1001A000EF92FF920F931F93CF93DF93CDB7DEB7FC
:1001B00029970FB6F894DEBF0FBECDBF399841988E
:1001C0002FEF81EE94E0215080409040E1F700C095
:1001D000000031990EC080E029960FB6F894DEBF7A
:1001E0000FBECDBFDF91CF911F910F91FF90EF9088
:1001F00008950E945900882371F38CEC0E948F00AF
:100200008EEB0E948F008E010F5F1F4F7E01EAE090
:10021000EE0EF11C0E94BE00F80181938F01EE15D5
:10022000FF05C1F70E9459008823A9F28CEC0E94B7
:100230008F008EE40E948F008B810E948F008C8142
:100240000E948F008FE70E948F008FE891E0019756
:10025000F1F700C000000E945900882309F4BBCFC9
:100260008CEC0E948F0088E40E948F009FEFE9EFE2
:10027000F0E09150E040F040E1F700C0000081E084
:10028000ABCFCF93DF93EC010E94AB00882301F149
:100290000E9459008823D1F08CEC0E948F008EEBD5
:1002A0000E948F000E94BE0088830E94BE00898346
:1002B0000E94BE000E94BE000E94BE000E94BE00BE
:1002C0000E94BE000E94BE000E94BE0081E001C0EC
:1002D00080E0DF91CF9108959BB19F709BB99BB156
:1002E000807F892B8BB9299A299A29980895CF93D1
:1002F000C82F28980E946C018C2F8295807F0E94C5
:100300006C018FE39FE10197F1F700C00000CF91EE
:100310000895811104C080E8860F0C94770180EC69
:10032000FBCF84B1836084B98AB1806F8AB98FE5CD
:100330009AEE0197F1F700C0000080E30E946C0183
:100340008FE19EE40197F1F700C0000080E30E9476
:100350006C018FED91E00197F1F700C0000080E3A0
:100360000E946C0180E20E946C018FE39FE1019783
:10037000F1F700C0000088E20E9477018FE00C9442
:100380007701CF93C82F289A0E946C018C2F8295F9
:10039000807F0E946C018FE39FE10197F1F700C01D
:1003A0000000CF910895CF93DF93EC0189918111E3
:1003B00003C0DF91CF9108950E94C101F7CFECE710
:1003C000F0E080818064808380818F77808380816A
:1003D00080628083EAE7F0E08081876080838081AB
:1003E00080688083089590917C00907F90937C003A
:1003F00090917C008F70892B80937C0080917A0093
:10040000806480937A0080917A0086FDFCCF809191
:1004100079000895CF9384E690E00E94A40DC82F40
:1004200085E690E00E94A40D9EEC9C0F993210F49A
:10043000C09306019EEC980F993210F48093050149
:100440008091050190910601891714F480930601AB
:10045000CF9108956091060184E690E00E94AC0D72
:100460006091050185E690E00C94AC0DFF920F932E
:100470001F93CF93DF93CDB7DEB760970FB6F89495
:10048000DEBF0FBECDBF81E00E94770160E080E05B
:100490000E9489014091B3018091BA019091BB0102
:1004A00030910501209106018E010F5F1F4F411110
:1004B00079C0F090BE016AE070E00E946007E32F0F
:1004C000032E000CFF0B422F022E000C550BFF20B9
:1004D00009F45DC09F938F937F936F93FF933F9336
:1004E0005F932F9387E091E09F938F931F9281E119
:1004F0008F931F930F930E94E2070FB6F894DEBF0D
:100500000FBECDBFC8010E94D30160E081E00E9410
:1005100089018091B401882309F469C06091B30115
:1005200090910301492F092E000C550B8091040175
:10053000282F082E000C330B662309F451C060915C
:10054000BE01662309F445C05F939F933F938F9349
:1005500083E491E09F938F931F9281E18F931F9388
:100560000F930E94E2070FB6F894DEBF0FBECDBF17
:10057000C8010E94D30160960FB6F894DEBF0FBE8B
:10058000CDBFDF91CF911F910F91FF9008959F9361
:100590008F937F936F93FF933F935F932F938BE1A1
:1005A00091E0A2CF6AE070E00E9460079F938F9372
:1005B0007F936F93832F032E000C990B9F933F9390
:1005C000822F022E000C990B9F932F938FE291E0C4
:1005D0008BCF5F939F933F938F9381E591E0BACF49
:1005E0005F939F933F938F938FE591E0B3CF8DE619
:1005F00091E0BFCF83E0809380008AE18093810007
:100600008FEC97E0909389008093880010928B0084
:1006100010928A0085E080936F00089583E88093AC
:10062000B00087E08093B100239A8CE08093B30000
:1006300081E08093700008958091B301882341F098
:100640008091B4014091040120910301811104C003
:1006500040910601209105018091BA019091BB0162
:100660006AE070E00E9460076417F4F488B1886162
:1006700088B94298809188009091890090938B006E
:1006800080938A008091BF01813041F48093B90149
:100690001092B8011092B7018FEF1FC08091B9017D
:1006A0008111FACF81E0F2CF261704F588B18C6072
:1006B00088B94498809188009091890090938B002C
:1006C00080938A008091BF018F3F51F481E0809335
:1006D000B9011092B8011092B7018093BF0108953B
:1006E0008091B901882391F381E0F7CF88B18461CB
:1006F00088B9439842130EC0809188009091890078
:100700009695879590938B0080938A001092B901FB
:1007100080E0E3CFE0918800F0918900042E000C86
:10072000550BA0918800B0918900062E000C770B24
:10073000641B750BB695A7956A9FC0016B9F900DC2
:100740007A9F900D1124622F220F770B641B750B7B
:100750000E944C07CF01861B970BD4CFCF93DF931A
:1007600000D0CDB7DEB7CE0101960E9441018823AB
:1007700021F1AA818981BA2FA82F24E630E00E94B6
:10078000C40720E130E040E050E00E949607A9E075
:10079000B0E00E94CB0722E330E040E050E00E944E
:1007A0009607205C3E4F3093BB012093BA010E9414
:1007B00036020E941C030E94A0000F900F90DF9150
:1007C000CF9108958AB1837F8AB98BB18C608BB940
:1007D00099B189B183FB222720F930E0220F331F22
:1007E00092FB882780F9822B8093BC01E8E6F0E039
:1007F000808184608083EDE6F0E080818C6080837E
:10080000089525982D9AE8E6F0E080818160808344
:10081000EBE6F0E080818062808308953898E8E616
:10082000F0E0808182608083ECE6F0E0808181608E
:10083000808308953D98459AECE6F0E080818062DF
:10084000808308951092C50087E68093C40088E9EC
:100850008093C10086E08093C20008950E949101B8
:100860000E94E2030E9401040E940E040E941A04E6
:100870000E942204249A2C9887B18C6187B988B190
:100880008C6188B90E94FA020E940E030E94D00077
:10089000811108C060E00E9489018EE791E00E940A
:1008A000D301FFCF81E00E94770160E080E00E94E9
:1008B000890182E991E00E94D30160E081E00E9419
:1008C00089018AE991E00E94D3012FEF83ED90E343
:1008D000215080409040E1F700C0000081E00E947C
:1008E00077010E940A020E9436020E94A0007894BA
:1008F00008958091C00085FFFCCF8CE38093C600F3
:100900008091C00085FFFCCF809106016AE00E94C3
:100910003E07805D8093C6008091C00085FFFCCFBC
:10092000809106016AE00E943E07905D9093C600A8
:100930008091C00085FFFCCF809105016AE00E9494
:100940003E07805D8093C6008091C00085FFFCCF8C
:10095000809105016AE00E943E07905D9093C60079
:100960008091C00085FFFCCF8EE38093C600089580
:10097000CF93DF9300D000D0CDB7DEB7CE01019684
:100980009F938F9302969F938F9388EA91E09F9312
:100990008F9380EC91E09F938F930E9412082B819C
:1009A0003C81C901C2970FB6F894DEBF0FBECDBF20
:1009B0008997D0F489819A81AC0142535109493217
:1009C000510590F42093040180930301821714F4DD
:1009D0008093040181E08093B4010E9436028091EB
:1009E000B30181110E941C030F900F900F900F9084
:1009F000DF91CF9108951F920F920FB60F9211249D
:100A00002F933F934F935F936F937F938F939F9316
:100A1000AF93BF93EF93FF9329B139B133FB88278D
:100A200080F990E0880F991F22FB992790F9892B74
:100A30009091BC01981739F19091BC01911102C0BD
:100A4000813099F09091BC01913011F4833069F0BC
:100A50009091BC01933011F4823039F09091BC0137
:100A6000923009F05BC0811159C09091B30191118E
:100A700037C09091BE01992339F1909105019A35C3
:100A80009CF08093BC01FF91EF91BF91AF919F913A
:100A90008F917F916F915F914F913F912F910F9027
:100AA0000FBE0F901F9018959F5F90930501809344
:100AB000BC018091B301811102C00E942A020E94F0
:100AC00036020E941C03DFCF909106019A35CCF6C6
:100AD000209105019217ACF69F5F90930601E7CF36
:100AE0009091B401992369F29091BE01992341F04C
:100AF000909103019A352CF69F5F90930301D7CF15
:100B0000909104019A350CF0BCCF2091030192170B
:100B10000CF0B7CF9F5F90930401C9CF9091BC01B7
:100B2000911102C0823099F09091BC01923011F481
:100B3000833069F09091BC01933011F4813039F029
:100B40009091BC01913009F09CCF81119ACF909186
:100B5000B301911117C09091BE01992361F090915A
:100B6000050193330CF48DCF2091060129170CF069
:100B700088CF91509ACF9091060193330CF481CF96
:100B80009150ABCF9091B401992309F47ACF909111
:100B9000BE01992361F09091030193330CF471CF5E
:100BA0002091040129170CF06CCF9150A6CF9091A1
:100BB000040193330CF465CF9150ADCF1F920F9287
:100BC0000FB60F9211242F938F939F93EF93FF9360
:100BD00093B181E0292F207295FF80E0909102016E
:100BE000913059F4211109C0EFE3FCE93197F1F795
:100BF00000C000001D9B9093BD0180930201FF91F6
:100C0000EF919F918F912F910F900FBE0F901F909A
:100C100018951F920F920FB60F9211242F938F9356
:100C20009F93EF93FF9386B1817090910101913072
:100C300059F4811109C0EFE1FEE43197F1F700C0EA
:100C40000000309B9093B6018093010196B181E042
:100C5000292F207295FF80E090910001913079F466
:100C600021110DC0EFE1FEE43197F1F700C0000063
:100C7000359905C02091B40121119093B50180935D
:100C80000001FF91EF919F918F912F910F900FBED7
:100C90000F901F9018951F920F920FB60F9211246C
:100CA0008F939F93EF93FF938091C6008C3381F4D1
:100CB00081E08093B1011092B2011092B001FF91D6
:100CC000EF919F918F910F900FBE0F901F901895ED
:100CD0009091B101992399F38E3381F48091B201FF
:100CE000843049F4E091B201F0E0E054FE4F10820C
:100CF00081E08093B0011092B101E1CF90ED980FA7
:100D00009A30C8F79091B2019430A8F7E091B201FF
:100D1000F0E0E054FE4F80838091B2018F5F8093BA
:100D2000B201CDCF1F920F920FB60F921124439AAA
:100D30000F900FBE0F901F9018951F920F920FB635
:100D40000F92112443980F900FBE0F901F9018958B
:100D50001F920F920FB60F9211242F933F934F9330
:100D60005F936F937F938F939F93AF93BF93EF9313
:100D7000FF938091B9018823C9F18091B7019091C7
:100D8000B80101969093B8018093B7018091B701A3
:100D90009091B8018336924010F52091B7013091BF
:100DA000B801A7E1B0E00E94B50722E632E040E0DA
:100DB00050E00E947407245F2093B300FF91EF91ED
:100DC000BF91AF919F918F917F916F915F914F9163
:100DD0003F912F910F900FBE0F901F90189582E6B4
:100DE00092E09093B8018093B701E8CF8CE08093B4
:100DF000B3001092B8011092B701E0CF0E942E0408
:100E00000E9436028091B601882321F00E94790465
:100E10001092B6018091B501882369F09091B301D9
:100E200081E0911180E08093B3010E9436020E941C
:100E30001C031092B5018091B001882321F00E941B
:100E4000B8041092B0018091BD01882359F09091AF
:100E5000BE0181E0911180E08093BE011092BD013E
:100E60000E9436020E94AE032FEF81EE94E02150E3
:100E700080409040E1F700C00000C4CF87FB082EFF
:100E8000062687FD819567FD61950E94D6070EF4C1
:100E9000919507FC81950895AA1BBB1B51E107C0E2
:100EA000AA1FBB1FA617B70710F0A61BB70B881FFA
:100EB000991F5A95A9F780959095BC01CD01089589
:100EC00097FB072E16F4009407D077FD09D00E94F7
:100ED0004C0707FC05D03EF4909581959F4F0895EF
:100EE000709561957F4F0895A1E21A2EAA1BBB1B36
:100EF000FD010DC0AA1FBB1FEE1FFF1FA217B307E6
:100F0000E407F50720F0A21BB30BE40BF50B661FFB
:100F1000771F881F991F1A9469F7609570958095BF
:100F200090959B01AC01BD01CF010895052E97FB63
:100F30001EF400940E94AD0757FD07D00E9474076D
:100F400007FC03D04EF40C94AD07509540953095B6
:100F500021953F4F4F4F5F4F089590958095709525
:100F600061957F4F8F4F9F4F0895A29FB001B39F10
:100F7000C001A39F700D811D1124911DB29F700DA2
:100F8000811D1124911D08950E94B507B7FF089592
:100F9000821B930B08950E94B507A59F900DB49FE7
:100FA000900DA49F800D911D11240895991B79E047
:100FB00004C0991F961708F0961B881F7A95C9F7E9
:100FC00080950895AEE0B0E0E8EEF7E00C94CC0D2B
:100FD0000D891E898F89988D26E02C831A830983B9
:100FE00097FF02C080E090E801979E838D83AE0159
:100FF000455E5F4F698D7A8DCE0101960E942B0868
:101000004D815E8157FD0AC02F81388542175307F5
:101010000CF49A01020F131FF80110822E96E4E0DF
:101020000C94E80DAEE0B0E0E8E1F8E00C94CE0DF1
:1010300085E08C838B899C899A838983AE01495E84
:101040005F4F6D897E89CE0101960E94900B2E968E
:10105000E2E00C94EA0DABE0B0E0E1E3F8E00C94E0
:10106000BE0D7C013B018A01FC011782168283813F
:1010700081FFC8C1CE0101965C01F7019381F301A4
:1010800093FD859193FF81913F01882309F453C11A
:10109000853239F493FD859193FF81913F0185322B
:1010A00029F4B70190E00E94FB0CE7CF912C212C92
:1010B000312CFFE1F31538F08B3211F190F48032CE
:1010C00009F1833229F137FC3CC020ED280F2A308A
:1010D00050F536FE20C08AE0989E200D1124922EF5
:1010E00006C08D3291F0803371F7689430F8F301C7
:1010F00093FD859193FF81913F018111DACF21C04A
:10110000689431F8689432F8F2CF689433F8EFCFEE
:10111000689434F8ECCFEAE02E9E200D1124222EA4
:10112000689435F8E4CF8E3229F436FC04C1689413
:1011300036F8DDCF8C3619F4689437F8D8CF883676
:10114000B1F2982F9F7D95549330E0F08336A1F152
:101150008337C1F1833509F063C02801F2E04F0EF7
:10116000511CF801C080D180692D70E036FC02C0AE
:101170006FEF7FEFC6010E94A90C4C01689437F80D
:1011800082010AC00C5F1F4FFFE3F9838824839418
:10119000912C6501E89437F833FE2DC0522C811450
:1011A000910471F5552009F468CFB70180E290E011
:1011B0000E94FB0C5A94F6CFF801808189830E5F60
:1011C0001F4FE4CF2801F2E04F0E511CF801C08000
:1011D000D180692D70E036FC02C06FEF7FEFC60151
:1011E0000E94B40C4C018201D5CFB70180E290E09F
:1011F0000E94FB0C2A942814190409F0B0F7CECFF2
:10120000F60137FC859137FE81916F01B70190E0BF
:101210000E94FB0C51105A94F1E08F1A9108BFCF35
:10122000843619F0893609F077C0F80137FE6BC0B3
:1012300060817181828193810C5F1F4FF32DFF7656
:101240003F2E97FF09C090958095709561957F4FCF
:101250008F4F9F4F689437F82AE030E0A5010E9435
:10126000430DC82ECA188C2C432C36FE0CC0E894B3
:1012700040F8C91440F434FE05C032FC03C0F32D1D
:10128000FE7E4F2E892C44FE95C0FE01EC0DF11D13
:101290008081803309F087C0242D297E422E842D41
:1012A0008870582E43FC95C040FE8FC09C2C821441
:1012B00018F42C0C922C981844FE91C0B70180E3CE
:1012C00090E00E94FB0C42FE09C088E790E041FEDE
:1012D00002C088E590E0B7010E94FB0CC91408F435
:1012E0008AC0CA94D12C9FEFC91AD90ACA0CDB1C38
:1012F000F60182916F01B70190E00E94FB0CAC14E3
:10130000BD04B1F74FCF60817181072E000C880BAF
:10131000990B0E5F1F4F92CFD32CE894D4F82AE09C
:1013200030E0853739F1232D297FD22E8F3601F118
:1013300048F48835A9F0F701868197812B96E2E180
:101340000C94DA0D803749F08837A9F7D4FE02C033
:101350006894D2F820E130E00DC06894D4F8F6CF5C
:1013600034FE03C0822F8660D82E20E132E002C016
:1013700028E030E0F801D7FE0FC0608171818281E2
:1013800093810C5F1F4FA5010E94430DC82ECA1800
:101390003D2CE89437F867CF6081718190E080E060
:1013A0000E5F1F4FF0CF42FC02C0839478CF83942E
:1013B000839475CF842D867809F471CFF6CFB70169
:1013C00080E290E00E94FB0C83948214C0F3512CC5
:1013D00073CF522C5818821408F46ECFF8CF842D96
:1013E000867809F47BCF8BE241FE80E247FC8DE2F8
:1013F000B70190E071CFB70180E390E00E94FB0C51
:101400009A946CCF8FEF9FEF99CF20FD09C0FC011C
:1014100023FD05C022FF02C0738362835183408392
:10142000089544FD17C046FD1DC0DB01FC01AA0F55
:10143000BB1FEE1FFF1F1094D1F76A0F7B1F8E1F7B
:101440009F1F660F771F881F991F620F711D811DD7
:10145000911D089533E0660F771F881F991F315043
:10146000D1F7F3CF34E0F7CF0F931F93CF93DF93F0
:101470008C01C8010E94BF0CEC0197FD08C00E94BE
:10148000950C892BB1F7B801CE010E942B0DCE012E
:10149000DF91CF911F910F9108958F929F92AF92FC
:1014A000BF92EF92FF920F931F93CF93DF938C0124
:1014B000D62F7A01B22E0E94BF0C9C0133272B320B
:1014C000310529F02D323105A9F46894B7F8D150CF
:1014D00061F480E0DF91CF911F910F91FF90EF9029
:1014E000BF90AF909F908F900895C8010E94BF0C4D
:1014F00097FDEFCFCB2DCD7F2B2D2073F9F48033CB
:10150000E9F4AA24AA94AD0E89F0C8010E94BF0C88
:1015100097FD0CC0282F2F7D283561F4C264D2506E
:1015200029F0C8010E94BF0C97FF08C0812C912CA4
:1015300054011BC0B6FE2BC0C260DA2D812C912C49
:10154000540120ED280F283028F1C4FD09C02A30AD
:1015500008F1C6FF05C02F7D3FEE320F3630C8F0D0
:10156000B8010E942B0DC1FFB4CFC7FF08C0B094D3
:10157000A09490948094811C911CA11CB11C2C2FD0
:10158000B501A401C7010E94050A81E0A3CFC26191
:10159000D4CF27504C2FC501B4010E94110A4B0132
:1015A0005C01C260D15009F3C8010E94BF0C97FFD3
:1015B000C8CFD9CFA0E2B0E0E0EEFAE00C94C30DC2
:1015C0005C01962E7A01CE0101966C0180E2F60153
:1015D00011928A95E9F7F501B381890130E020E0A5
:1015E000712C812CA0E041E050E0F801B3FD859121
:1015F000B3FF8191982F8F01811107C010E000E0A7
:10160000C801A096EDE00C94DF0D8E3519F421157C
:10161000310541F1A21713064CF48D3549F18D3295
:1016200029F4811006C0882483941DC0882009F401
:1016300064C0E92FE695E695E695EC0DFD2DF11DCC
:10164000892F8770BA0101C0660F8A95EAF78081F9
:10165000682B6083791651F0971510F49F5FE9CFDE
:101660009150E7CFA1E02F5F3F4FBFCF812CFBCF41
:10167000882019F08E8180628E83AA2359F0F601AA
:101680009E012F5D3F4F8081809580833196E217C8
:10169000F307C9F788248394C5010E94BF0C97FD06
:1016A00016C0E82FE695E695E695EC0DFD2DF11DAB
:1016B000208130E0AC014770552702C03595279551
:1016C0004A95E2F720FD06C0B5010E942B0D882047
:1016D00069F094CFE114F10429F0F7018083C70188
:1016E00001967C019A94812C9110D6CFE114F104DB
:1016F00009F486CFF701108283CFE82FE695E695AF
:10170000E695EC0DFD2DF11D982F9770BA0101C0E3
:10171000660F9A95EAF79081692B6083782EA3CFA4
:10172000B0E0A0E0E6E9FBE00C94C10D6C01EB0138
:101730005A01FC0117821682512CF601E380FE014A
:10174000E3FC8591E3FE8191182FEF018823E9F0F6
:1017500090E00E94950C892B21F0C6010E94340A6A
:10176000ECCF153241F4FE01E3FC1591E3FE11913B
:10177000EF01153269F4C6010E94BF0C97FD8EC0BF
:101780001817D9F2B6010E942B0D852D90E08AC062
:1017900000E01A3231F4E3FC1591E3FE1191EF0100
:1017A00001E0F12C20ED210F2A3048F101FF37C074
:1017B000FF2059F31836B1F11C3609F43DC011234E
:1017C00021F3612F70E088E690E00E949E0C892B47
:1017D000E1F2912C812C00FD06C0F5018080918002
:1017E000C50102965C011E3679F5F60146815781E6
:1017F00070E060E0202FC4010E94050A9ECF0260C5
:101800006F2D70E090E080E040E20E94110AF62E19
:10181000FE01E3FC1591E3FE1191EF01C3CFFF241C
:10182000FA94C8CFFE01E3FC1591E3FE1191EF019C
:10183000183609F0C4CF08600460FE01E3FC15917E
:10184000E3FE1191EF01BBCF1336C1F401FD02C0DD
:10185000FF24F394C6010E94BF0C97FD1FC08114A2
:10186000910429F0F4018083C40101964C01FA949B
:10187000F110F0CF00FD61CF53945FCF1B35B9F469
:101880009E01A4016F2DC6010E94DA0AEC01892B8A
:1018900089F7F6018381807309F477CF8FEF9FEF8B
:1018A000511073CFCDB7DEB7EFE00C94DD0DC6015C
:1018B0000E94340A97FDF2CF1F36A9F130F4143696
:1018C00041F0193639F0006405C01337B9F0153707
:1018D000D1F70062202FA4016F2DC6010E944D0A8E
:1018E0008111C8CFD6CF8114910429F0F401608210
:1018F000C40101964C01FA94FF2071F0C6010E94C8
:10190000BF0C3C0197FD08C00E94950C892B59F330
:10191000B601C3010E942B0D8114910409F4AACFD2
:10192000F4011082A7CF0061D5CF91110C94A10DC5
:10193000803219F089508550C8F70895FC01059050
:10194000061621F00020D9F7C00108953197CF0184
:101950000895FC010590615070400110D8F7809502
:1019600090958E0F9F1F0895FC016150704001906B
:101970000110D8F7809590958E0F9F1F0895CF93F3
:10198000DF93EC012B8120FF1AC026FF0CC02F7BB8
:101990002B838E819F8101969F838E838A8190E025
:1019A000DF91CF91089522FF18C0E881F9818081ED
:1019B000082E000C990B009729F420622B838FEFDF
:1019C0009FEFEECF3196F983E8832E813F812F5F21
:1019D0003F4F3F832E839927E3CFEA85FB85099507
:1019E00097FFF3CF2B81019621F080E2822B8B832E
:1019F000E6CF80E1FBCF0F931F93CF93DF93182F98
:101A0000092FEB018B8181FD09C01FEF0FEF812FA3
:101A1000902FDF91CF911F910F91089582FF14C0F5
:101A20002E813F818C819D81281739073CF4E88104
:101A3000F981CF0101969983888310838E819F81DC
:101A400001969F838E83E3CFE885F985812F0995E1
:101A5000892BA1F3DACFFB01238120FF11C026FDE2
:101A60000FC08F3F980771F082832F7D20642383FE
:101A7000268137812150310937832683992708959C
:101A80008FEF9FEF0895FA01AA27283051F12031F6
:101A900081F1E8946F936E7F6E5F7F4F8F4F9F4F02
:101AA000AF4FB1E03ED0B4E03CD0670F781F891F44
:101AB0009A1FA11D680F791F8A1F911DA11D6A0F12
:101AC000711D811D911DA11D20D009F468943F91C5
:101AD0002AE0269F11243019305D3193DEF6CF01C4
:101AE0000895462F4770405D4193B3E00FD0C9F78A
:101AF000F6CF462F4F70405D4A3318F0495D31FDF7
:101B00004052419302D0A9F7EACFB4E0A695979549
:101B1000879577956795BA95C9F70097610571051F
:101B200008959B01AC010A2E069457954795379569
:101B30002795BA95C9F7620F731F841F951FA01DC3
:101B40000895992788270895F999FECF92BD81BD00
:101B5000F89A992780B50895262FF999FECF92BD5E
:101B600081BDF89A019700B4021639F01FBA20BD62
:101B70000FB6F894FA9AF99A0FBE08952F923F92F1
:101B80004F925F926F927F928F929F92AF92BF928D
:101B9000CF92DF92EF92FF920F931F93CF93DF9339
:101BA000CDB7DEB7CA1BDB0B0FB6F894DEBF0FBE96
:101BB000CDBF09942A88398848885F846E847D84E3
:101BC0008C849B84AA84B984C884DF80EE80FD80E5
:101BD0000C811B81AA81B981CE0FD11D0FB6F8945B
:0E1BE000DEBF0FBECDBFED010895F894FFCF1C
:101BEE000101014B414B41204C3D2532643E483DA5
:101BFE002532643C2025642E2564003E4C3D253262
:101C0E006420483D2532643C2025642E2564002046
:101C1E004C3D25326420483D253264202025642E1B
:101C2E00256400204C3D2532643E483D2532643CFF
:101C3E00003E4C3D25326420483D2532643C002058
:101C4E004C3D25326420483D253264200020202062
:101C5E002020202020202020202020202000436132
:101C6E006E2774204465746563742053656E736FBC
:101C7E007200416E74686F6E7900454531303920BF
:101C8E0050726F6A656374002532642532640000F9
:00000001FF
